:04000000803196288D
:1000080080312000911C8C283908380403191028E5
:100018000130B8020030B93B4108400403191828E0
:100028000130C0020030C13B2100E00A0319E10A97
:10003800013061022C3003196002031C28280130AA
:10004800E001E1012000C906200043084204031929
:1000580031280130C2020030C33B2100E20A0319F3
:10006800E30A03306302E83003196202031C4228E2
:10007800E201E30120005B08031DDB0320003708D1
:10008800360403194B280130B6020030B73B460B43
:10009800862837083604031D86284535A23E860083
:1000A8000130870016000104031983284535A03E56
:1000B800860001308700403FF000413FF100C70053
:1000C8004535A03E86000108C8004535A23E860099
:1000D8000130403FB600413FB7004535A03E86009D
:1000E80001308101413181014535A23E8600013050
:1000F8008700810141318101C50AC50A86288731F7
:10010800D8278031C608031D8B2818100E119110AE
:10011800111C090004308E0647089700480896000D
:10012800111009008801803199282030FA01FB015B
:1001380084000030850040308731DF278031A030CF
:1001480084000030850044308731DF27803120303B
:1001580084000130850020308731DF278031A030CE
:100168008400013085003C308731DF278031200052
:10017800BD282100E401E501892180315222803126
:10018800A2218031D6218031E1218031582280316D
:1001980081218031FC218031EB2180319622803110
:1001A800D926803120005308031918295408E6007D
:1001B8005508E700E430E800E530E9005F30EA0080
:1001C8007B089431742480312100640BF928E40100
:1001D8002000BE0A0319BF0A27303F021030031956
:1001E8003E02031CF928BE01BF012100650B0A2944
:1001F800E5012000BC0A0319BD0A27303D02103072
:1002080003193C02031C0A29BC01BD012000550B3F
:100218000E29D501540803191A29540303191A2958
:100228005408023A03191A29D901D8014C030319B1
:10023800D4282221803178218031D428590B6C2987
:1002480041084004031D08002C30C0000130C100E3
:100258000730DC0A5C02031C5729DC0157290F16FA
:1002680008008F168F1E3B2920008F1508002000DC
:100278008F1108000F170F1F442920000F1546295A
:1002880020000F110F1D4B2920008F14080020009B
:100298008F1008000F1208008F128F1108000F131B
:1002A8000F118F1008005C08013A03193329033A2B
:1002B80003193529013A03193E29073A03194E292A
:1002C800013A03195029033A031953296B290800E5
:1002D8007B08033A031908000F130F118F108F12B0
:1002E8008F110F12DC010800580B7C298F170800AA
:1002F8007B08033A031D8F13080020001810C6015D
:10030800C501B601B7010E11080078309900063012
:100318009500023097009601220097019D019601F1
:1003280023008C018D018E018F0190018B0120002B
:100338009101920121009D018B13080001302000DA
:100348008C0022008C00103021008C0023008C01CE
:1003580020008D0122008D013F3021008D000F30DB
:1003680024008D0023008D01103020008E00220013
:100378008E00A03021008E0023008E0120008F0106
:1003880022008F0121008F0123008F0104302000FB
:100398009000220090002100900124009001230089
:1003A80090010800C0308B004D3020009800970164
:1003B80096011810210011140800C0308B001D3060
:1003C80020009C00FA309B002100911408002100B5
:1003D80019308E170E1723009B009C019F01903047
:1003E8009D049E162100C03091168B001112080042
:1003F8003830CE01CE0AF501F401F3002030F200C6
:100408002030F60035228031220020085A3A031D98
:10041800282A21082000CF00220022082000D70027
:10042800220023082000D600220024082000CD0046
:10043800220025082000C40022002608FA00200017
:10044800D20022002808322A20000430CF01D70128
:10045800D70AD601CD01C401FA01D201FB009231BD
:10046800352A230015137308920072089100F801C9
:1004780015140000000078087607F70086000130A0
:100488008700230013088100910A0319920A20307B
:10049800F80A7802031C3C2A15100800C830F2003C
:1004A800F301F401F501252F013077228031033063
:1004B80077228031E330772280310530772280310E
:1004C80018307722803180307722803108307722C7
:1004D80080310D3077228031063077228031A0308C
:1004E80077228031C32AF200F300F40110112000B2
:1004F800101121000C3090147415F335F40DF5002B
:10050800101020001010F41D8C2A21008C168E2A41
:10051800BF27803121001014F335F40DF50B842A20
:100528001010B22F9630F2009830F3002126803157
:10053800B62280312114A11421172000370836046F
:10054800031DAF2A4535A23E8600013087001600FC
:1005580001040319B22A0D238031A12A2110A11008
:100568002113C32AF2017208A03E8600FF308701DA
:1005780081002030F20A720203180800B72AF70136
:10058800F801F2017808DB2280317708A03E860066
:1005980025308701840098308500000881004030AC
:1005A800F70AF80AF80A780203180800C52AF300BF
:1005B800F400F50121001011200010112100403035
:1005C8009014F4040130F5040930F60010102000EE
:1005D8001010751CF22A21008C16F42ABF278031CE
:1005E80021001014F435F50DF60BEA2A0830F60050
:1005F800101020001010721C042B21008C16062BE2
:10060800BF27803121001014F236F60BFC2A101097
:10061800B22F33238031F7017708C03E8600870167
:100628007708A03E84008501000881002030F70A81
:100638007702031C102B9231F0228031F7017736B4
:10064800C03E860087010108F2007708DB2280316E
:100658003C30F70AF70A770203180800232B201CFE
:10066800372B2100A0172000A01C3C2B2100BD1710
:100678002000201D412B2100BC172000A01D462B67
:100688002100BB172000201E4B2B2100BA17200089
:10069800A01E502B2100B9172000201F552B210028
:1006A800B8172000A01F5A2B2100B4172000211CC6
:1006B800602B2100B317622B2100B3132000A11C6B
:1006C800682B210033146A2B210033102000211DD0
:1006D8006F2B2100B0172000A11D742B2100B71724
:1006E8002000211E792B2100B6172000A11E7E2B89
:1006F8002100B5172000211F842B2100B314862B5D
:100708002100B3102000A11F8B2B2100AD17200062
:10071800221C902B2100A4172000A21C952B21003D
:10072800A7172000221D9A2B2100AA172000A21D1E
:100738009F2B2100AC172000221EA42B2100A117FB
:100748002000A21EA92B2100B2172000221FAE2BC9
:100758002100A2172000A21FB32B2100AB172000F5
:10076800231CB82B2100A6172000A31CBD2B210099
:10077800A9172000231D08002100AF170800E40076
:10078800640BF42B2630F2009930F30021268031D7
:10079800DA0A2D08E1002C08E0007A085627803193
:1007A8000008123A031DE52B5A08543A031DDE2BA4
:1007B8005530DA0056305A02031C08005130DA006E
:1007C800080054305A02031CEB2B5130DA0048273A
:1007D8008031031D08005A08523A0319DA0A080042
:1007E8006408043A031D3F2C4230F2009930F300AC
:1007F80021268031312C4F080319042CCF0308001F
:100808008927803156278031AC2780310319022C83
:10081800042C902780315627000800380319D60188
:100828000800570803191A2CD703080097278031A6
:1008380056278031000800380319182C1A2C440850
:100848000319282CC40308008227803156278031D9
:10085800AC2780310319262C282C5A08513A031941
:10086800FF2B033A03190D2C013A0319152C063AEC
:100878000319232C8B2C6408083A031D7E2C423064
:10088800F2009930F30021268031702C89278031BD
:1008980056278031AC270319CF01080056080319E1
:1008A800572CD6030800902780315627803100083E
:1008B80000380319552C572C9727803156270008E4
:1008C80000380319D7010800822780315627803164
:1008D800AC270319C40108005A08513A03194A2CD5
:1008E800033A0319522C013A0319602C063A0319EA
:1008F800682C8B2C6408023A031D08001A30F20099
:100908009930F300212680312430FB005F2608004F
:10091800E200620BBA2C0230CC01D5000330D400BF
:100928007B08243A03199B2C2430FB00AC2CA62707
:1009380080319E2780310319A62C0430FB00C32286
:100948008031AC2C3A30F2009930F3002126803106
:100958002000A62780319E27803103190800263001
:10096800F2009930F300212680315F2E6208043AA4
:10097800031D492D5508023A031D492D4230F20046
:100988009930F300212680313D2D7B08213A031D43
:10099800CF2C2730FB00FB0348278031031DDA2CBE
:1009A8007B08213A031DDA2C2630FB0048278031CA
:1009B800031DE42C7B08253A031DE42C2430FB009E
:1009C8004F278031031DEE2C7B08223A031DEE2CA5
:1009D8002130FB004F278031031D08007B08263A91
:1009E800031D08002530FB0008007B08213A031D81
:1009F800FF2C2A30FB00FB037B08273A031D062D3A
:100A08002430FB0048278031031D102D7B08213A34
:100A1800031D102D2930FB0048278031031D1A2D96
:100A28007B08283A031D1A2D2430FB004F278031FC
:100A3800031D242D7B08223A031D242D2130FB00A1
:100A48004F278031031D08007B08293A031D080041
:100A58002830FB0008007B08213A031D352D2D3076
:100A6800FB00FB037B082A3A031D08002430FB0027
:100A7800080075278031103A0319C92C013A031967
:100A8800F92C033A03192F2D202E6208083A031D6A
:100A9800D22D5508023A031DD22D4230F20099306A
:100AA800F30021268031FB0AC62D27307B02031C68
:100AB8005F2D2130FB0048278031031D692D7B08FD
:100AC800213A031D692D2230FB0048278031031D80
:100AD800732D7B08253A031D732D2630FB004F2705
:100AE8008031031D7D2D7B08223A031D7D2D233087
:100AF800FB004F278031031D08007B08263A031DA1
:100B080008002130FB0008002A307B02031C8E2DD0
:100B18002130FB007B08253A031D942D2830FB006B
:100B280048278031031D9E2D7B08213A031D9E2DE9
:100B38002230FB0048278031031DA82D7B08283A66
:100B4800031DA82D2930FB004F278031031DB22D2E
:100B58007B08223A031DB22D2330FB004F2780313A
:100B6800031D08007B08293A832D2D307B02031CC6
:100B7800BF2D2130FB007B08253A031D08002B30D0
:100B8800FB00080075278031103A0319592D013AE6
:100B98000319882D033A0319B92D202E6208023A49
:100BA800031D182E5508023A031D182E7B08243AF7
:100BB800031DE92D2630F2009930F30021268031FB
:100BC8000230FB005130DA00B92CBA30F20098300C
:100BD800F30021268031F82DD401042ED401D40A43
:100BE800042E0230D400042E75278031103A0319E0
:100BF800F02D013A0319F22D033A0319F52D042EAD
:100C08007B08233A031D0A2E0430D400CA01550874
:100C1800023A031D112ED501D50AD301D30ABE010C
:100C2800BF01BC01BD01B92C6208031908003A30A4
:100C3800F2009930F30021260800F9012000C608C7
:100C4800031D0800C601C60AC501B601B7010E1189
:100C5800502E7308F5007208F40079357407840083
:100C680075080318750A8500003FF600013FF70074
:100C78007935A03E8600013087007608C03F7708A6
:100C8800C13F5D2780317935A23E86007708C03F95
:100C98007808C13FF90AF90A5D2780317704031DF6
:100CA8002D2E7935A03EB82780317935A23EB82758
:100CB8002000181408003830F501F401F300203042
:100CC800F200952680315A302200A00020004F08FB
:100CD8002200A100200057082200A2002000560888
:100CE8002200A30020004D082200A4002000440890
:100CF8002200A5007A08A6007B08A8003830F50174
:100D0800F401F3002030F2002030F600A426F901A7
:100D180079088A310C228031F90A7902031808000F
:100D28008C2E8B1323001513730892007208910000
:100D380015161515D1260000230015118B1708006C
:100D48008B13730823009200720891001513151273
:100D580095161515F80178087607F7008600013012
:100D680087000108930094012030F80A78020318DC
:100D7800C42ED12680312300910A0319920AC92E64
:100D88009512D12680310000CD2E20307802031C28
:100D9800AF2E230015118B17080055309600AA3086
:100DA80096009514000000000800F3268031EF003B
:100DB8007B08023A031DE42E6F08C3238031EF2E0F
:100DC8007B08043A031DED2E6F089131D121803143
:100DD800EF2E6F088C248A312F2280310D2BF301DE
:100DE80019278031F40074080319102FD008031D47
:100DF800052F3230B800B901D001D00A7408D100EB
:100E0800172F39083804031D172F51087406031DBE
:100E1800172F0230D000172F5008023A031D162F43
:100E28005108F300D00173080800F20120000D1CDE
:100E3800F2148D1C72150D1D72148D1DF215720899
:100E480008000130F600F701F801F901F20277080D
:100E5800F33B7808F43B7908F53B720A0319730AE7
:100E68000319740A0319750A031908002000E00120
:100E7800E101E00A0319E10A013061024D3003196A
:100E880060020318252F3D2F2608840027088500B7
:100E98000008003808002408840025088500000898
:100EA800003808006007840061080318610A85009B
:100EB80008007908F400F43574087207F50073081F
:100EC8000318890AF41B8903F600023075078400A9
:100ED80076080318760A8500003FF700013FF800FE
:100EE80008002D08E1002C08E0007A08600784005B
:100EF80061080318610A850000080800C40A2B0865
:100F0800E1002A08E00044350800CF0A2908E1007A
:100F18002808E0004F350800D60A3108E1003008FB
:100F2800E00056080800D70A3508E1003408E00058
:100F380057080800840061080318610A8500000842
:100F4800003A08002D08E1002C08E000013E0800E6
:100F5800003FE200013FE300620408002000101097
:100F680021008C16101508008600013087008101C9
:100F780041318101080021008C1220008C120800E8
:100F88009331FE2B9231FE2A9331352B93314B2B23
:100F98009331612B9331772B93318D2B9331A32B85
:100FA8009331C32B9331DB2B1810C601C501B60151
:100FB800B7010E110800640080010131890BE02F90
:020FC8000034F3
:10113A00E32088315D0B08000230DD00D801D80AAF
:10114A000800E32088315D0BAE280230DD00D801AB
:10115A00D80A8D1E0034580B0034E00160080C22B6
:10116A008831E00A6002031CB3282030F4001530ED
:10117A00F5000030A8218831D8208831E0016008C4
:10118A0013228831F90060081F228831790611304C
:10119A00031DD428E00A6002031CC428113060022F
:1011AA000318013400340130F500F6009631EC26BC
:1011BA000D30F5000130F6009631EC2E5D080F3A3D
:1011CA00031D08005B080319F7283E3097311127E1
:1011DA008831F600C039F700C03A031D0800DD0166
:1011EA00DD0A08001B2AF901F72188315D0B102955
:1011FA000230DD00D908031D1029D901D90A3B089C
:10120A00C3003A08C200F030973183278831382169
:10121A0088312A228831590B36295D08033A031985
:10122A008D1E1B29DD0197311A2788314308420494
:10123A00031D2B293B08C3003A08C2000330DB0018
:10124A000F30DD0025229631EC2688315D08023AFE
:10125A00031D3629F03097318327883138218831A8
:10126A002A2279080800E00002307602031C0800EE
:10127A008E110C1060088038C4218831E10176088B
:10128A006102031858297508F8007408F700610804
:10129A007707840078080318780A85000008C421B3
:1012AA008831E10A44290C140800E52188315D0BD4
:1012BA0062290230DD00D801D80A8D1E0034580B8D
:1012CA000034E20162080C228831E20A6202031C3D
:1012DA0067291030973111278831E00097319E270E
:1012EA0088319631EC268831973170278831031876
:1012FA00013E85000008063A031D85291530892913
:10130A001330973111278831E1002030F400610849
:10131A00F5000030A82197311F278831E2016208C1
:10132A0013228831F90062081F22883179061130A8
:10133A00031DA429E20A6202031C942911306202E5
:10134A00031801340034F70002307502031C080048
:10135A008E110C107708C4218831F80175087802BB
:10136A000318C22978087407F6008600013087003E
:10137A00D62188318100F80AB3290C140800F2003A
:10138A0008300C108E11F3008E11F21FCE290E16A2
:10139A00CF290E128E15F235F30BC9298E110E16AE
:1013AA0008000830F2010C100E16F3008E11F23507
:1013BA008E158E1A7214F30BDB298E11720808002F
:1013CA005D080F3A031D08005B080319F629183057
:1013DA00973111278831F600761D0800DD01DD0AF4
:1013EA0008001B2A5D080F3A031D08005B08031951
:1013FA000B2A3E30973111278831F600A039F700C1
:10140A00A03A031D0800DD01DD0A08001B2A203E60
:10141A00860001308700203081010800F03E8400F8
:10142A0098300318013E850000080800CC01CC0A58
:10143A00DD010800203E860001308700010808000F
:10144A000B30F5000130F60008000330F901F90A03
:10145A00DD00080020004C0BD22A042B2D08772728
:10146A008A3169278A31103A031D3F2AE630F4008F
:10147A009930562A2D0877278A3169278A31113AF5
:10148A00031D4B2ACA30F4009930562A2D087727B3
:10149A008A3169278A31123A031D5A2AED30F4003B
:1014AA009930F500193099248A3102302000CA0097
:1014BA00A2112212A113A2102211A2132210A01209
:1014CA002013A0132110E3278A3199242000A114A4
:1014DA000800C330F4009930F500193099248A3194
:1014EA0005305B2A7D30ED009930EE000230D02ABB
:1014FA00B530ED009930AC2A9930ED009930AC2A1C
:10150A00DF30ED009930AC2AA730ED009930AC2AD3
:10151A008B30ED009930AC2AD130ED009930AC2AED
:10152A00AE30ED009930AC2A9230ED009930AC2AF9
:10153A00D830ED009930AC2ABC30ED009930AC2A95
:10154A00A030ED009930AC2A8430ED009930EE00DD
:10155A00112B7D30ED009930EE005A08513A031DE7
:10156A00B92ACA01CA0A112B5A08523A031DBF2ABC
:10157A000630D02A5A08533A031DC52A0730D02A02
:10158A005A08543A031DCB2A0830D02A5A08553A29
:10159A00031D112B0930CA00112B7B08013A0319CC
:1015AA006E2A033A0319AE2A063A0319332A253A50
:1015BA000319A12A033A0319A52A013A0319A92AE8
:1015CA00073A0319772A013A03197D2A033A0319BC
:1015DA00812A013A0319852A0F3A0319892A013AFD
:1015EA0003198D2A033A0319912A013A0319952AF4
:1015FA00073A0319992A013A03199D2A112B7630C1
:10160A00ED009930EE000230CA000630F20099303F
:10161A00F300863121268A316E08F5006D08F40040
:10162A00193099248A312000E3278A3199248A3192
:10163A002000A114312BA0162013252BA01220174D
:10164A00A0132A2BA0122013A0172110542BA0128A
:10165A002013A0132114542B2908EA002808E900B2
:10166A004F35690771278A31003FEB00013FEC00D3
:10167A00013A0319442B023A03194C2B542B6B08D9
:10168A003B3A0319202B893A0319232B542B6B0855
:10169A00643A0319272BF73A03192C2B542B3508D4
:1016AA00EA003408E900570869278A31E4000C3057
:1016BA00E50138258A312D0877278A3169278A3149
:1016CA00123A031D6B2BA21322106D2BA2172214A0
:1016DA00873148278A31031DA32B2D0877278A31A2
:1016EA0069278A31123A0319A32BF430F40099308E
:1016FA00F5001D3099248A312000A211E9278A3188
:10170A0038258A31F6302216F4009930F5000E3069
:10171A0099248A312000F530A113FC278A319924B3
:10172A008A312000A210AA278A3169278A31E40067
:10173A000830E50138258A312215492C87314F278F
:10174A008A31031DDD2B2D0877278A3169278A31D3
:10175A00123A0319DD2B3F08F8278A3138258A31D6
:10176A00F430A215F4009930F500003099248A313A
:10177A0020002212A4278A3169278A31E4000E3018
:10178A00E50138258A31A117B5278A3169278A31B7
:10179A00E4000530E50138258A31F530A214F40059
:1017AA009930F500083099248A3120002211492CF9
:1017BA003F08F8278A3138258A31A215E9278A3164
:1017CA0038258A312216A4278A3169278A31E4000A
:1017DA000E30E50138258A31A1172D0877278A317D
:1017EA0069278A31123A031D342CF530FC278A31D5
:1017FA0099248A312000A2102B0888278A31712760
:10180A008A31003FEB00013FEC0003306C02E83004
:10181A0003196B020318202C2B0888278A31712799
:10182A008A31003FE400013FE500083038258A315B
:10183A002215A314492C0A30F200F3012B08882739
:10184A008A3171278A31003FF400013FF5001327DE
:10185A008A317308E5007208E4000830452CB52780
:10186A008A3169278A31E4000530E50138258A3151
:10187A00A214AA278A3169278A31E4000830E501CF
:10188A0038258A312215A3103208840033088500CE
:10189A000008003A0319932C7B08263A0319612C95
:1018AA007B08223A0319612C7B082C3A0319612C14
:1018BA007B08293A031D932C20145F08FF3A031969
:1018CA000800A0142015A01520163308EA003208D3
:1018DA00E900033E71278A3100085F02031C2012C7
:1018EA003308EA003208E900023E71278A3100080B
:1018FA005F02031CA0113308EA003208E900013E26
:10190A00712700085F02031C201132088400330883
:10191A00850000085F02031CA01008002010A01018
:10192A002011A01120120800F900F601F801A62CD6
:10193A000630A42C0430A42C0230A42C0330F80066
:10194A00C02C7908003A03199F2C053A0319A32CD5
:10195A000D3A0319A32C043A0319A32C023A0319CA
:10196A00A12C1C3A03199F2C0B3A03199D2C043AFB
:10197A0003199F2CC02C79080C3A031DEA2C79080C
:10198A00A03E860087017408840075088500000857
:10199A00D2268A31810079089F3E86008701750820
:1019AA002000E1007408E000013EC2278A31D226F5
:1019BA008A3181007508E1007408E000023EC227FE
:1019CA008A31D2262100A400080079081D3A031999
:1019DA00FA2C7908193A0319FA2C7908123A0319D8
:1019EA00FA2C79080E3A031D1B2D7908F70079089D
:1019FA002000E000E1016108E30078086002E200EB
:101A0A00031CE3036308803AE40080306402031D88
:101A1A00102D7708620203180800770893278A3185
:101A2A00D2268A318100F60AF703FC2C78080319BA
:101A3A0008007908F700790878072000E000E1013A
:101A4A00E10D6108803A803C031D2D2D6008770264
:101A5A0003180800770893278A31D2268A31810031
:101A6A00F60AF70A202DE800E601422D0430402D3F
:101A7A000230402D0330E600592D6808003A031958
:101A8A003B2D053A03193F2D0D3A03193F2D043A10
:101A9A0003193F2D023A03193D2D1C3A03193B2D18
:101AAA000F3A03193B2D592D6608043A031DBC2D24
:101ABA00E808031DBC2D0A30BB278A3138278A3132
:101ACA006008E7006808A33E58278A310A30E00018
:101ADA00E10181278A3113278A31DE278A313827A3
:101AEA008A318E278A3158278A31C9278A31812734
:101AFA008A3113278A31DE278A3138278A31B0277B
:101B0A008A3158278A31D3278A31CE278A31132737
:101B1A008A3164278A3158278A3103306502E830CE
:101B2A00031964020318A02D6808A03E860020301D
:101B3A00D2268A31810000306502643003196402BA
:101B4A000318AD2D6808EE278A31D2268A31810022
:101B5A00003065020A300319640203180800680895
:101B6A00A23E860020308701D2268100080066083E
:101B7A00043A031D1E2E0A30BB278A3138278A31C0
:101B8A006008E70068089D3E58278A310A30E0005D
:101B9A00E10181278A3113278A31DE278A313827E2
:101BAA008A316008E70068089E3E58278A31C927AB
:101BBA008A3181278A3113278A31DE278A313827E9
:101BCA008A317C278A3158278A31D3278A31CE270E
:101BDA008A3113278A3164278A3158278A31033098
:101BEA006502E830031964020318022E6808A03E51
:101BFA0086002030D2268A318100003065026430A6
:101C0A000319640203180F2E6808F3278A31D226B3
:101C1A008A318100003065020A3003196402031810
:101C2A00080068089E3E860020308701D22681007F
:101C3A0008006608033A031D6A2E68080C3A031D59
:101C4A006A2E0A30BB278A3138278A316008E700B2
:101C5A00013E840098300318013E850000082100E7
:101C6A00A4000A302000E000E10181278A3113270D
:101C7A008A31DE278A3138278A317C278A315827E8
:101C8A008A31643081278A3113278A3164278A315D
:101C9A0058278A3100306502643003196402031838
:101CAA005D2E6808A03E86002030D2268A31810047
:101CBA00003065020A300319640203180800680834
:101CCA00F3278A31D226810008006608033A031DE9
:101CDA00AE2E68080C3A0319AE2E0A30BB278A3199
:101CEA0038278A318E278A3158278A310A30E0000C
:101CFA00E10181278A3113278A31DE278A31382781
:101D0A008A31B0278A3158278A31643081278A314B
:101D1A0013278A3164278A3158278A3100306502AD
:101D2A006430031964020318A12E6808A03E8600D5
:101D3A002030D2268A318100003065020A30031928
:101D4A006402031808006808EE278A31D226810047
:101D5A0008006608023A031D08000A30BB278A31C8
:101D6A0038278A317C278A3158278A310A308127D5
:101D7A008A3113278A3164278A3158278A310030F9
:101D8A0065020A3003196402031808006808A03EB5
:101D9A0086002030D22681000800F300303073021A
:101DAA00031CE12E3A3073020318E12E7308D13E68
:101DBA0084009730D8278A3141307302031CEF2EF2
:101DCA005B3073020318EF2E7308CA3E8400973003
:101DDA00D8278A3161307302031CFD2E7B307302CF
:101DEA0073080318FE2EAA3E84009730D8278A313A
:101DFA007308203A031D072F253084009830850088
:101E0A000008F20073082D3A031D112F26308400B2
:101E1A00983085000008F20072080800F701F801FE
:101E2A00730872040319332FF601F60AF31B202FE5
:101E3A00F235F30D1A2FF735F80D73087502031DE5
:101E4A00282F72087402031C2F2F7208F4027308D9
:101E5A00F53B7714F336F20CF60B202F7808F300D3
:101E6A007708F2000800610860040319532FF9018A
:101E7A00F90AE11B432FE035E10D3D2F61086302AA
:101E8A00031D492F60086202031C4F2F6008E202FB
:101E9A006108E33BE136E00CF90B432F6308E100EC
:101EAA006208E0000800860087016708013E840096
:101EBA0098300318013E8500000881000800720866
:101ECA00E7006808A03E0800690784006A0803184A
:101EDA006A0A85000008080084006A0803186A0A6A
:101EEA0085000800EA002C08E9007A080800600862
:101EFA00E70068089F3E0800F200F3016508F50054
:101F0A006408F4000800EA002A08E9004435690771
:101F1A0008006008E7006808A23E0800A03E8600A4
:101F2A00870175082000E1007408E0007608600760
:101F3A00840061080318610A850000080800310856
:101F4A00EA003008E900560808002508EA002408D3
:101F5A00E900440808006008E7006808A13E080094
:101F6A002708EA002608E9004D080800E000E10118
:101F7A006508E3006408E2000800840061080318A9
:101F8A00610A8500000808000A30E0006430E101B7
:101F9A0008006508F5006408F4000800E830F2005B
:101FAA000330F30008000318013E85000008F20020
:101FBA0008007308E3007208E200080021152F08E0
:101FCA00F5002E08F40012343D08E5003C08E40050
:101FDA000034A13E86002030870108009F3E86001B
:101FEA00203087010800E5003E08E4001D34F400B3
:061FFA009930F5000534EA
:1023A200E200043A031DE9294230F2009930F300B9
:1023B2008631212691317A080319E129FA030800AE
:1023C200FA0A2D08C722913100380319DF29E129C1
:1023D2006208083A031DFB294230F2009930F300EB
:1023E200863121269131FA0A2D08C72200380319B5
:1023F200FA0108006208023A031D2C2A1A30F20080
:102402009930F3008631212691310230D5002430F3
:10241200FB0052087A060319292A2D08C722913196
:10242200103A031D182ACF01D701D70A262A2D08F0
:10243200C7229131113A0319292A2D08C722913155
:10244200123A031D292ACF01D701D601CD01C401B9
:10245200352286315F2E6208031908003A30F200F5
:102462009930F3008631212E2000BE01BF01BC014C
:10247200BD012D08F3002C08F200013E8400730810
:102482000318730A850000080038031D4E2A7B08D2
:10249200043A031D4E2A2430FB00F430BA00013006
:1024A200BB006F30AC009930AD00D3229131103AAD
:1024B200031D6D2A5730E82291316630B4009930FD
:1024C200B500DF2291317230A4009930A50061304D
:1024D200B2009930B300882A2D08D3229131123AE2
:1024E200031D882A5730E8229131DF2291313230A0
:1024F200B4009930B500DA30AA009830AB005230FF
:10250200B2009930B3000330D7000730C4004E0B3D
:10251200080025307B02031C922A2E307B02031C0A
:10252200A32A21307B02031CBB2A24307B02031C1A
:10253200A32ABB2AD401B02AD401D40AB02A023079
:10254200D400B02A2D08D3229131103A03199B2AC4
:10255200013A03199D2A033A0319A02AB02A7B08DB
:10256200233A031DB62A0430D400D301D30AD5017D
:10257200D50A08007B08023A031DC12A5130DA004D
:102582000330D301D4000230D5000800E1002C084A
:10259200E0007A086007840061080318610A850078
:1025A20000080800F3002C08F2007A087207840081
:1025B20073080318730A8500000808005C30B00035
:1025C2009930B1007430A6009930A7000800AE001F
:1025D2009930AF006B30A8009930A90008002000A4
:1025E2004B084A060319F32BF3011A2492312030C7
:1025F200F30A73020318F32BF62A490803191D2B59
:10260200A01E082B21003908D900D913FE2B201F48
:102612000F2B21003808D800D813FE2BA01F162B31
:1026220021003408D400D413FE2B211CFE2B2100E0
:102632003308D300D313FE2BA01E232B210039080D
:10264200D900FE2B201F292B21003808D800FE2B91
:10265200A01F2F2B21003408D400FE2B211CFE2B9F
:1026620021003308D300FE2B49081930F300031967
:10267200432B7308022492311430F3037302031CB8
:10268200FE2B3A2B1A2492311430F3037302031CEB
:10269200FE2B432B49081D30F3000319592B7308F5
:1026A200022492311A30F3037302031CFE2B502BC7
:1026B2001A2492311A30F3037302031CFE2B592B96
:1026C200490803196E2BF301730802249231043076
:1026D200F30A73020318FE2B652BF3011A249231BD
:1026E2000430F30A73020318FE2B6F2B49081230D1
:1026F200F3000319852B7308022492310F30F30380
:102702007302031CFE2B7C2B1A2492310F30F3032D
:102712007302031CFE2B852B49080E30F3000319AC
:102722009B2B7308022492310D30F3037302031CB6
:10273200FE2B922B1A2492310D30F3037302031CE9
:10274200FE2B9B2B49080319BB2B253014249231F5
:1027520021002C0880397204CC0025308400983086
:1027620085000008CB0025301424923124088039DA
:102772007204C12B21002C08CC002B08CB002408AA
:10278200C400FE2B49080530F3000319D32B73084C
:10279200022492310830F30A7302031CC82B210071
:1027A200C613FE2B1A2492310830F30A730203185F
:1027B200FE2BD32B49080830F3000319EB2B7308C7
:1027C200022492310B30F30A7302031CE02B210026
:1027D200C913FE2B1A2492310B30F30A7302031829
:1027E200FE2BEB2B20004A0884000A300402031857
:1027F200FE2B87310435C43E820020004A08CB00FC
:102802000800C03E8600253087018400983085008C
:102812000008F2007308A03E840085010008803998
:102822007204810008008400983085000008F200DC
:1028320008007308C03E860087017308A03E84002A
:102842008501000881000800E301ED2794315D0B4A
:10285200432C0230DD00D908031D432CD901D90ACB
:102862003B08C3003A08C200F0308327893138217F
:1028720094318A3125229431EC2694310330E301DC
:10288200E30ADD00590B722C5D08033A03198D1E11
:10289200522C1230112794311F279431DD011A274F
:1028A200943143084204031D722CDD08031D722C6F
:1028B2003B08C3003A08C2000E3011279431E200EF
:1028C2009E279431EC269431F030832789313821C8
:1028D20094318A3125229431EC260330DD00E30164
:1028E200E30A63080800EB006608023A03199F2C0A
:1028F200A72C6703031D7F2CC62594312524943110
:10290200EC006C0BE42C6808860087018101810AC7
:10291200E42C6703031D8E2CF02589315A21943152
:10292200EC006C0B992C69088E2786312126943194
:102932006A088600870131279431C52C6B082B3A2F
:1029420003197A2C073A03198A2CE42CE608031996
:10295200C72CCF2C670BAE2C07258831F820943179
:10296200812C670BB52C39258831A6209431EC00D7
:102972006C0BC02C69088E278631212694316A0897
:1029820086008701242794318100E42C6B08253AC4
:102992000319AB2C033A0319B22CE42C6608033A50
:1029A200031DDA2C5E08033A0319E42C1A2794312A
:1029B200E42C6608043A031DE42C5E08043A031969
:1029C200E42C0C2794316608023A031DE608031D25
:1029D200042D6B08213A031DF52C670BF22CAD2751
:1029E20094313B279431042D6B08223A031D042DA8
:1029F200670BFC2CCE2788319D2094316A08860013
:102A02008701242781006608DE00080001302026A5
:102A12009431E501570809070907593EE300983048
:102A22000318890AE4006535630784006408031803
:102A3200640A850089279431EC2694310230E50A34
:102A42006502031C0B2DE5016535903E840098302C
:102A520056279431EC2694310330E50A6502031CB3
:102A6200252D0B30F5000130F600EC269431C82FED
:102A7200210001308C1420269431E5015708090702
:102A82000907593EE30098300318890AE4006535C6
:102A92006307840064080318640A85008927943157
:102AA200EC2694310230E50A6502031C3F2DE50154
:102AB20065357B3E8400983056279431EC2694315C
:102AC2000430E50A6502031C592D0D30F500013072
:102AD200F600EC269431E72F97279431E0000000AE
:102AE2002000E00B702D2200C8300F142000E000FF
:102AF20000002000E00B792D21000F142000DB01E3
:102B0200DB0ADB08031D822D0C279431FA30E0002A
:102B120000002000E00B892DE0010630F2004F0892
:102B2200002794318A3EF800983074279431EC26BD
:102B320094310330E00A6002031C8E2DE001570835
:102B420009070907593EF800983074279431EC269A
:102B520094310230E00A6002031CA02D5635733E08
:102B62008400983056279431EC269431E001603588
:102B7200473E8400983056279431EC269431093030
:102B8200E00A6002031CB82D1A2F0030202694316F
:102B92008730F5004D30F600EC2694310030F50018
:102BA2002430F600EC2694314130F5004030F60036
:102BB200EC2694311F279431F730F5001130F600DE
:102BC200EC269431A3279431EC2694310E30112750
:102BD2009431E3009E279431EC269431C82F0030C3
:102BE200202694318430F5004D30F600EC269431E5
:102BF200FF30F5002430F600EC2694310130F50068
:102C02004030F600EC2694313F30F5001130F600EA
:102C1200EC2694311F279431A3279431EC2694316A
:102C22000F3011279431E3009E279431EC26943122
:102C32000D30F5000130F600EC269431E72F20002C
:102C4200E00097279431E20000002000E20B252EDD
:102C52002200C8300F142000E20000002000E20B26
:102C62002E2E21000F142000DB01DB0ADB08031DDE
:102C7200372E0C279431FA30E20000002000E20BDC
:102C82003E2EE008031DC62E2C279431E2010630A9
:102C9200F2004F08002794315E279431EC269431DC
:102CA2000330E20A6202031C482E5635733E84004A
:102CB200983056279431EC2694310B30F500F6000B
:102CC200EC2694312330F5000C30F600EC269431DA
:102CD200702794310318013E85000008063A031D4F
:102CE2009A2E4408693E8400983046279431033076
:102CF200F5071D30F63DEC269431702794314627B6
:102D02009431A8279431EC26943131301127943133
:102D1200E100F830E1050530E1046108F5003130E9
:102D2200F601F607EC2694310C30F5003730F60048
:102D3200AC2E4408693E8400983046279431023014
:102D4200F5071D30F63DEC26943170279431462765
:102D52009431A8279431EC269431FF30F5001F30CE
:102D6200F600EC2694312030F501F600EC26943181
:102D72000C30F5002130F600EC2694310130F500DC
:102D82004130F600EC269431EB2EE2010630F200DF
:102D92004F08002794315E279431EC26943103309A
:102DA200E20A6202031CC72E5635733E8400983035
:102DB20056279431EC269431E2016235273E840095
:102DC200983056279431EC2694311030E20A620290
:102DD200031CDE2E1A2F10308E110C10F617F7007E
:102DE2008E11F61FF62E0E16F72E0E128E15F535D3
:102DF200F60DF70BF12E8E110E160C140800F400CE
:102E0200F30172087418F307F235F436F408031D5F
:102E1200022F730808000830F5000130F600EC2E8E
:102E2200F4008931C42194318931D621F5000C1482
:102E320008000930F5000130F600EC2EFF30F500F5
:102E42001230F600EC2E11301127F600F636760815
:102E52007F3CF60008008830F5000130F600EC2EC9
:102E62001B301127F600F630F701F607FF30F73D69
:102E7200760808008931F72194315D0B0800023091
:102E8200DD00D901D90A8C1408000318013E85001F
:102E92000008F500F030F601F50EF60EF60575089D
:102EA2000F39F604F030F50508000318013E8500DD
:102EB200003FF500013FF60008008A3EF800983016
:102EC2000318890AF9006235780784007908031823
:102ED200790A8500003FF500013FF6000800570817
:102EE200833E840098340318890AF9006035780714
:102EF200840079080318790A8500003FF500013F34
:102F0200F6000800F4009830F5001530F6000034A1
:102F1200003FF500013FF600080086004A308701B5
:102F22008101810AF2009930F300080021000F109C
:102F32002200C8300F1020000800F5000D30F60105
:102F4200F60708001530F5002230F60008000730B9
:102F5200F5071E30F63D080021008C1020008C1071
:102F62006D259431E1016135903E840098305627F9
:102F72009431EC2694310330E10A6102031CB42F30
:102F82002B30F5000130F600EC269431C82F0330C7
:102F9200DB000F30D801DD00080021008C146D2504
:102FA2009431E10161357B3E84009830562794319B
:102FB200EC2694310430E10A6102031CD32F0D3058
:102FC200F5000130F600EC269431E72F0330DB00E8
:102FD2000F30D901DD0008005D080F3A031D08001B
:102FE2005B080319FE2F223011279431F600153A9F
:102FF200031D0800DD01DD0A08008A311B2A0034A6
:10300200773424345D346D342E346B347B34253480
:103012007F346F343F347A3453347C345B341B3422
:103022006F343E34243464341A34523437343834EE
:1030320078341F342F3418346B345A347034763465
:1030420000340034003400340034083402340434D0
:103052003D3405340B340B3423340C341234123423
:10306200A0341F34003425340634263492342734F5
:10307200AA3428342D342934D4342A340034303458
:103082004034313415343234953435340234043416
:103092003D3405340B340B3420340C3412341234E6
:1030A200A0341F3400342534003426340034313443
:1030B200683402342B340334343402341534033488
:1030C2001A3402340B3403340D340234053403341D
:1030D2000034013402340334043405340634073432
:1030E20008340934FF340934FC340934F93409341E
:1030F200F63409340F3409340C344034003441348A
:1031020084344D3406340734083409340A340B3419
:103112000C346C3406348034073400340834003400
:1031220040340034413487344D348034F534F4343F
:1031320001348034F634F43401340034F734F43496
:1031420001340034F734FA3400348034F634FA347B
:1031520000340034F734F43401348034F534FA3472
:1031620000340034F534FA340034003400340034CE
:1031720000340034F134C834003400340034643490
:1031820000340034F334C83400340034003464347E
:1031920000340034F234C83400340034003464346F
:1031A20000340034F734C8340034003400340034BE
:1031B20000344E340034683400349C340034D0344B
:1031C200003438340134A134013471340234E2342D
:1031D2000434C43409348834133400340034483499
:1031E2006F347034653452344634203452344634A9
:1031F2004D34203443344F344234523446344D3407
:10320200393438342D34533400340034F83496349D
:10321200003400340034323400348034F434C8349E
:1032220000340034003432340034003400340034CA
:1032320000348034F534643400340034F33496348A
:10324200003400340034003400340034F334963453
:1032520000348034F53464340034003400340034F3
:10326200003406340734083409340A340B340C347D
:1032720000340034F1343234003400340034003489
:1032820000348034F43464340034003400340034C4
:1032920000340034F3343234003400340034003467
:1032A200003428343C345A347834003439343834D5
:1032B200203420340034143411340D340B340034EF
:1032C2001934323446345F3400340C341834303418
:1032D20060340034B2340134003400341234103417
:1032E20000345334003423340034203445347234EF
:1032F200723420342034003420347334653474340E
:1033020020342034003453344C3445344534503462
:10331200203400344F344F342D342D345234203481
:1033220000344C3452342D342D3452342034003491
:10333200463453342D342D34523420340034203466
:1033420054342D342D345234203400344F344F341D
:103352002D342D345434203400344C3452342D3432
:103362002D34543420340034463453342D342D3427
:10337200543420340034203454342D342D34543415
:1033820020340034733465346C342D345234463472
:103392000034733465346C342D344F344F3400347C
:1033A2004F344F342D342D345434523400344C3491
:1033B20052342D342D345434523400344634533480
:1033C2002D342D34543452340034733465346C3417
:1033D2002D34463453340034733465346C342D3414
:1033E2004C347234003420342034203420340034FD
:020000040001F9
:02000E00E429E3
:00000001FF
